:020000040800F2
:1000000050040020D9010008BF0C0008210C000892
:10001000BD0C0008E5020008711000080000000097
:10002000000000000000000000000000E30C0008D9
:10003000E702000800000000E10C0008E50C0008E1
:10004000F3010008F3010008F3010008F3010008C0
:10005000F3010008F3010008F3010008F3010008B0
:10006000F3010008F3010008F3010008F3010008A0
:10007000F3010008F3010008F3010008F301000890
:10008000F3010008F3010008F3010008F301000880
:10009000F3010008F3010008F3010008F301000870
:1000A000F3010008F3010008F3010008F301000860
:1000B000F3010008F3010008F3010008F301000850
:1000C000F3010008F3010008F3010008F301000840
:1000D000F3010008F3010008F3010008F301000830
:1000E000F3010008F3010008F3010008F301000820
:1000F000F3010008F3010008F3010008F301000810
:10010000F3010008F3010008F3010008F3010008FF
:10011000F3010008F3010008F3010008F3010008EF
:10012000F3010008F3010008F3010008F3010008DF
:10013000F30100080000000000000000F3010008C7
:10014000F3010008F3010008F3010008F3010008BF
:10015000F3010008F3010008F3010008F3010008AF
:10016000F3010008F3010008F3010008F30100089F
:10017000F3010008F3010008F3010008000000008B
:1001800000000000F3010008000000000000000073
:10019000F30100080000000000000000F301000867
:1001A000000000000000000000000000F301000853
:1001B000F3010008F3010008F3010008F30100084F
:1001C000F3010008DFF80CD000F07AF8004800478F
:1001D0009110000850040020064880470648004758
:1001E000FEE7FEE7FEE7FEE7FEE7FEE7FEE7FEE7E7
:1001F000FEE7FEE7710D0008C50100082DE9F05F7C
:100200000546002092469B46884606468146402485
:100210001BE0284641464746224600F041F8534637
:100220005A46C01A914110D311461846224600F092
:1002300028F82D1A67EB01084F46224601200021BD
:1002400000F01FF817EB00094E41201EA4F1010435
:10025000DFDC484631462A464346BDE8F09FD2B22D
:1002600001E000F8012B491EFBD270470022F6E79F
:1002700010B513460A4604461946FFF7F0FF20461C
:1002800010BD202A04DB203A00FA02F1002070475A
:100290009140C2F1200320FA03F3194390407047C4
:1002A000202A04DB203A21FA02F00021704721FACB
:1002B00002F3D040C2F12002914008431946704732
:1002C000064C074D06E0E06840F0010394E80700A3
:1002D00098471034AC42F6D3FFF778FF08110008B6
:1002E00028110008FEE7704770B5044600F0E6F8F4
:1002F0000546601C02D004480078044400F0DEF893
:10030000401BA042FAD370BD000000202DE9F84F39
:10031000DFF874B100224FF001084FF0030A4FF0EC
:100320000F090BF1040E00BF0B6808FA02F423401A
:10033000A3426ED14D68022D01D0122D0ED1D508E9
:1003400000EB850CDCF820505607F70E09FA07F68B
:10035000B5430E69BE402E43CCF8206006685500B8
:100360000F790AFA05FC07F0030726EA0C06AF40EE
:10037000374307604E68012E05D0022E03D0112EA0
:1003800001D0122E0ED18668CF6826EA0C06AF4047
:10039000374387604668A6430C79C4F30014944041
:1003A00034434460C4688E6824EA0C04AE4026439B
:1003B000C6604C68E40060D5344C256845F480453F
:1003C0002560246822F0030504F480440094304C36
:1003D0002E19D6F8084895072F0F09FA07F5AC43F0
:1003E0002C4DA84201D100251FE02B4DA84201D180
:1003F00001251AE0294DA84201D1022515E0284D1A
:10040000A84201D1032510E0264DA84202D10425BF
:100410000BE032E0244DA84201D1052505E0234D33
:10042000A84201D1062500E00725BD402543C6F8B6
:100430000858DBF800405D464E689C43F60300D543
:100440001C432C60DEF8004075464E689C43B603A2
:1004500000D51C432C600C4D08352C684E689C431D
:10046000F60200D51C432C60074D0C352C684E68F5
:100470009C43B60200D51C432C60521C102AFFF48A
:1004800053AFBDE8F88F0000003C01404438024003
:100490000030014000000240000402400008024019
:1004A000000C0240001002400014024000180240FC
:1004B0000AB1816170470904FBE7000001488068C8
:1004C0007047000000000020024881680278114453
:1004D00081607047000000200B4810B5016841F4AE
:1004E00000710160016841F480610160016841F4BC
:1004F00080710160032000F063F8002000F006F82E
:1005000000F024F8002010BD003C024070B50D4DF5
:1005100004464FF47A712878B1FBF0F00A49096873
:10052000B1FBF0F000F002FB48B9102C07D200221A
:100530002146501E00F024F800206C6070BD0120A0
:1005400070BD0000000000200C0000200B4882B0AD
:10055000016841F480410160006800F4804000902F
:100560000648001F016841F080510160006800F0FA
:1005700080500090072002B000F022B844380240BA
:10058000F0B40E4B1B680C46C3F30223C3F10705FE
:10059000042D00D90425191D072901D2002300E0EC
:1005A000DB1E012606FA05F1491E214099409E40B6
:1005B000761E16403143F0BC00F082BB0CED00E02B
:1005C000064900F0070208684FF6FF03184040EAAA
:1005D0000220034A10430860704700000CED00E061
:1005E0000000FA052DE9F0470E46050065D0DFF85A
:1005F0001481D8F80000F7B200F00F00B04207D223
:1006000088F80070D8F8000000F00F00B04254D114
:1006100028683D4C810712D5400703D5206840F477
:10062000E05020602878000703D5206840F460403F
:1006300020602068A96820F0F00008432060287836
:10064000C0072DD0304968680839012812D0022827
:1006500013D0032811D00968890700292DDA2168F1
:1006600021F0030101432160FFF728FF814641F299
:10067000883A0EE009688903EFE709688901ECE729
:10068000FFF71CFFA0EB0901514502D90320BDE88B
:10069000F0872068696800F00C00B0EB810FEFD1A3
:1006A000D8F80010404601F00F01B14207D9077099
:1006B000006800F00F00B04201D00120E7E7287881
:1006C000400705D52068E96820F4E0500843206021
:1006D0002878000706D52068296920F4604040EAA0
:1006E000C100206000F036F82168084AC1F3031108
:1006F000515CC840064908600020FFF707FF002052
:10070000C5E70000003C024008380240F010000835
:100710000C0000200448054900680968044AC1F338
:100720008221515CC84070470C000020083802400C
:10073000001100080448054900680968044AC1F32B
:100740004231515CC84070470C000020083802401C
:1007500000110008224810B5006810F00C02214872
:1007600015D04110042A11D01D4C241F082A0FD087
:100770000C2A0CD12268236802F03F025B0221D5CB
:100780002068C0F38810A0FB010120E0084610BDDE
:100790002268236802F03F025B0205D52068C0F39F
:1007A0008810A0FB010104E02168C1F38811A1FBBE
:1007B00000010023FFF722FD2168C1F30141491C1C
:1007C00049000AE02168C1F38811A1FB0001002360
:1007D000FFF714FD2168C1F30271B0FBF1F010BD09
:1007E000083802400024F4002DE9F84F0546DFF8F0
:1007F00028B30078ABF10407C007A7F1040451D077
:10080000DBF800105846C1F3810101290FD00168BF
:10081000C1F38101022902D13968490207D4006875
:10082000C0F38100032809D13868400206D520684A
:10083000800337D56868002872D033E06868B0F567
:10084000803F10D0B0F5A02F206810D020F4803069
:100850002060206820F4802020606868A8B1FFF73D
:100860002DFE06460DE0206840F48030F4E740F4A9
:1008700080202060F7E700BFFFF720FE801B642880
:1008800078D820688003F7D50CE0FFF717FE0646FE
:1008900005E000BFFFF712FE801B6428F0D8206837
:1008A0008003F7D42878DFF8749280074FF0000AAD
:1008B00046D5DBF80010584611F00C0F0FD0016838
:1008C000C1F38101022902D13968490207D50068C4
:1008D000C0F38100032809D13868400206D420689B
:1008E000800715D5E86801281AD111E0E868C0B181
:1008F0000120C9F80000FFF7E1FD064605E000BF52
:10090000FFF7DCFD801B0228BAD820688007F7D5E6
:100910002068296920F0F80040EAC10020600FE05B
:10092000F7E0C9F800A0FFF7C9FD064605E000BFE3
:10093000FFF7C4FD801B02281CD820688007F7D46D
:100940002878000727D5DFF8D0817548696908F154
:100950006C0881B101210160FFF7B0FD064604E09B
:10096000FFF7ACFD801B022804D8D8F800008007F0
:10097000F6D510E089E0C0F800A0FFF79FFD06461D
:1009800005E000BFFFF79AFD801B02287DD8D8F84C
:1009900000008007F6D42878400769D55E484FF0FC
:1009A000000838300068C0000BD45B48383001685C
:1009B00041F08051016000684FF0010800F0805064
:1009C0000090584E3068C00511D4306840F48070F3
:1009D0003060FFF773FD009006E000BFFFF76EFD8B
:1009E0000099401A022850D83068C005F6D54A4E02
:1009F000A868683601280FD00528306810D020F08C
:100A000001003060306820F004003060A868B8B1A0
:100A1000FFF754FD00900FE0306840F00100F4E76C
:100A200040F004003060F7E7FFF748FD0099411AF5
:100A300041F28830814264D830688007F4D50EE0F6
:100A4000FFF73CFD009007E0FFF738FD0099411AE1
:100A500041F28830814254D830688007F4D4B8F12C
:100A6000000F05D02C483830016821F0805101601A
:100A7000A869A8B3DBF80010C1F38101022948D0AE
:100A80000228C9F860A005D000E03AE0FFF716FDA3
:100A9000054639E0FFF712FD064604E0FFF70EFDBC
:100AA000801B02282DD820688001F7D4F5E90701C2
:100AB0000843E9681C4A490802EB0141AA6841EA77
:100AC00082110843297C40EA0160297D40EA0170D7
:100AD00038600120C9F86000FFF7F0FC054606E029
:100AE00015E000BFFFF7EAFC401B022809D8206888
:100AF0008001F7D50BE000BFFFF7E0FC401B0228A8
:100B000002D90320BDE8F88F20688001F4D40020CA
:100B1000F8E70120F6E700000838024000004742ED
:100B2000800E4742007000400000FFFF10B5401EDD
:100B3000B0F1807F01D3012010BD4FF0E02460614F
:100B40000F21601700F0BCF80020A0610720206191
:100B5000002010BD70B5040004D094F839000025C1
:100B600010B106E0012070BD84F83850204600F036
:100B700023F8242084F839002068C16821F400514A
:100B8000C160204600F01EF92068016921F49041FF
:100B900001612068416921F02A0141612068C16832
:100BA00041F40051C160E563202084F8390084F8E5
:100BB0003A00002070BD000010B586B00446142134
:100BC0006846FFF753FB13492068884220D112483A
:100BD000016841F400310160006800F400300590C4
:100BE0000D481038016841F0010101600068694654
:100BF00000F0010005900C200090022001900120DF
:100C0000029003200390072004900448FFF77EFB26
:100C100006B010BD004400404038024000000240D1
:100C2000FEE7000030B587B014216846FFF71EFBD1
:100C30001E480024016841F004010160016801F0D0
:100C400004010591016841F080010160016801F033
:100C500080010591016841F001010160016801F026
:100C600001010591016841F0020101600068104D29
:100C700000F002000590002220212846FFF718FC12
:100C80004FF4005000900B48CDE9010469460A4832
:100C9000FFF73CFB202000900120CDE901046946CC
:100CA00028460394FFF732FB07B030BD30380240CE
:100CB000000002400000211000080240FEE77047DB
:100CC0000907090E002806DA00F00F0000F1E02005
:100CD00080F8141D704700F1E02080F80014704780
:100CE00070477047FFF7F0BB30B593B034216846CA
:100CF000FFF7BCFA14210DA8FFF7B8FA1A4800252F
:100D0000016841F080510160006800F0805012904D
:100D10001648016821F4404141F4804101600068B7
:100D2000022400F44040129001200390102000940F
:100D300006940490CDE907504FF4A8700990042060
:100D4000CDE90A0468460C94FFF74EFD0DA90F206B
:100D500081E83100E002CDE9100502210DA8FFF77E
:100D600041FC13B030BD000040380240007000402C
:100D70001048016841F4700101600F48016841F0BA
:100D8000010101600C4A00210832116002680B4B1E
:100D90001A400260031D0A4A1A60026822F4802287
:100DA000026005480C30016002495806803908602D
:100DB0007047000088ED00E000380240FFFFF6FEBB
:100DC000103000242DE9F04104460068016921F447
:100DD0004052E168114301612168C86849F20C6220
:100DE00090432369A268E5691A4363692B431A4358
:100DF0000243CA602168486920F44072A069104328
:100E00004861E1696425B1F5004F9748974A216828
:100E10004FF032083FD0914201D081427CD1FFF7A0
:100E200089FC00EBC00101EB001061688900B0FB98
:100E3000F1F6FFF77FFC00EBC00101EB00106168E9
:100E40008900B0FBF1F0B0FBF5F06FF018014843FA
:100E500006EB800108EB0110B0FBF5F000F0F006A6
:100E6000FFF768FC00EBC00101EB0010616889002E
:100E7000B0FBF1F0B0FBF5F006EB0016FFF75AFC03
:100E800000EBC00101EB001061688900B0FBF1F7D5
:100E9000FFF750FCD2E0914201D081423DD1FFF7F3
:100EA00049FC00EBC00101EB001061684900B0FB98
:100EB000F1F0B0FBF5F00601FFF73CFC00EBC001E0
:100EC00001EB001061684900B0FBF1F7FFF732FC5D
:100ED00000EBC00101EB001061684900B0FBF1F0CC
:100EE000B0FBF5F06FF01801484307EB800108EB09
:100EF000C100B0FBF5F000F0F80006EB4006FFF78C
:100F000019FC00EBC00101EB001061684900B0FB67
:100F1000F1F7FFF70FFC3CE055E0FFF7FBFB00EBC0
:100F2000C00101EB001061684900B0FBF1F0B0FBBB
:100F3000F5F00601FFF7EEFB00EBC00101EB00103E
:100F400061684900B0FBF1F7FFF7E4FB00EBC0017B
:100F500001EB001061684900B0FBF1F0B0FBF5F067
:100F60006FF01801484307EB800108EBC100B0FBAC
:100F7000F5F000F0F80006EB4006FFF7CBFB00EBC6
:100F8000C00101EB001061684900B0FBF1F7FFF709
:100F9000C1FB00EBC00101EB001061684900B0FB30
:100FA000F1F0B0FBF5F06FF01801484307EB80015A
:100FB00008EBC100B0FBF5F000F0070021683044F9
:100FC0008860BDE8F081FFF7A5FB00EBC00101EBF5
:100FD000001061688900B0FBF1F6FFF79BFB00EBA6
:100FE000C00101EB001061688900B0FBF1F0B0FBBB
:100FF000F5F06FF01801484306EB800108EB011093
:10100000B0FBF5F000F0F006FFF784FB00EBC00149
:1010100001EB001061688900B0FBF1F0B0FBF5F066
:1010200006EB0016FFF776FB00EBC00101EB0010AA
:1010300061688900B0FBF1F7FFF76CFB00EBC001C2
:1010400001EB001061688900B0FBF1F0B0FBF5F036
:101050006FF01801484307EB800108EB0110B0FB6B
:10106000F5F000F00F00A9E7001401400010014066
:10107000FEE702E008C8121F08C1002AFAD1704733
:101080007047002001E001C1121F002AFBD1704708
:10109000FFF722FAFFF728FEFFF7C4FD12481149B7
:1010A0000C2201604FF4E131416000218160C16098
:1010B000C0E904128161C161FFF74CFD0B4D4FF493
:1010C000FA74012220212846FFF7F2F92046FFF7A3
:1010D0000BF9002220212846FFF7EAF92046FFF706
:1010E00003F9EEE700440040100000200000024039
:1010F00000000000000000000102030406070809C8
:101100000000000001020304281100080000002074
:1011100010000000721000083811000810000020B4
:1011200040040000821000080100000010000000D0
:08113000000000000024F4009F
:04000005080001C529
:00000001FF
